:100000000C945C000C9479000C9479000C947900A9
:100010000C9479000C9479000C9479000C9479007C
:100020000C9479000C9479000C9479000C9479006C
:100030000C9479000C9479000C9479000C9479005C
:100040000C9468010C9479000C9479000C9479005C
:100050000C9479000C9479000C9479000C9479003C
:100060000C9479000C947900000000080002010053
:100070000003040700000000000000000000000072
:10008000250028002B0000000000240027002A0083
:10009000040404040404040402020202020203032E
:1000A0000303030301020408102040800102040836
:1000B000102001020408102011241FBECFEFD8E049
:1000C000DEBFCDBF11E0A0E0B1E0EEECF5E002C094
:1000D00005900D92A430B107D9F721E0A4E0B1E07A
:1000E00001C01D92A531B207E1F70E94B2010C9444
:1000F000E5020C94000090E0FC01EC55FF4F2491C8
:1001000080579F4FFC018491882399F090E0880FDD
:10011000991FFC01EA57FF4FA591B491FC01E458E7
:10012000FF4F859194918FB7F894EC91E22BEC936B
:100130008FBF089590E0FC01E859FF4F2491FC0126
:10014000EC55FF4F3491FC01E057FF4FE491EE2353
:10015000C9F0222339F0233001F1A8F4213019F13C
:10016000223029F1F0E0EE0FFF1FE458FF4FA59178
:10017000B4918FB7F894EC91611126C030953E236D
:100180003C938FBF08952730A9F02830C9F0243060
:1001900049F7809180008F7D03C0809180008F7728
:1001A00080938000DFCF84B58F7784BDDBCF84B5AB
:1001B0008F7DFBCF8091B0008F778093B000D2CF3E
:1001C0008091B0008F7DF9CF3E2BDACF3FB7F89406
:1001D0008091110190911201A0911301B09114012D
:1001E00026B5A89B05C02F3F19F00196A11DB11D92
:1001F0003FBFBA2FA92F982F8827BC01CD01620FCE
:10020000711D811D911D42E0660F771F881F991F88
:100210004A95D1F70895CF93DF93D82FC8E06D2F7B
:10022000661F6627661F8BE00E949A00DD0F61E063
:100230008DE00E949A0060E08DE00E949A00C1501B
:1002400071F7DF91CF910895CF93DF93D82FC62F09
:1002500060E08AE00E949A008D2F0E940B018C2F93
:100260000E940B0161E08AE0DF91CF910C949A002B
:100270001F93CF93DF938091010190910201EAE0F7
:10028000F0E0BF010E94BD02262F382FE9018091C6
:10029000040190910501BF010E94BD02162F9091AB
:1002A0000001992311F0D068C068682F81E00E9496
:1002B0002401612F82E00E9424016D2F83E00E94BF
:1002C00024016C2F84E0DF91CF911F910C942401C5
:1002D0001F920F920FB60F9211242F933F938F937B
:1002E0009F93AF93BF9380910D0190910E01A091C8
:1002F0000F01B091100130910C0123E0230F2D3735
:1003000058F50196A11DB11D20930C0180930D019C
:1003100090930E01A0930F01B093100180911101F1
:1003200090911201A0911301B09114010196A11DA9
:10033000B11D8093110190931201A0931301B0930A
:100340001401BF91AF919F918F913F912F910F9089
:100350000FBE0F901F90189526E8230F0296A11D3F
:10036000B11DD2CF789484B5826084BD84B581609C
:1003700084BD85B5826085BD85B5816085BD809170
:100380006E00816080936E001092810080918100E8
:1003900082608093810080918100816080938100E0
:1003A000809180008160809380008091B1008460A2
:1003B0008093B1008091B00081608093B000809103
:1003C0007A00846080937A0080917A0082608093C2
:1003D0007A0080917A00816080937A0080917A001F
:1003E000806880937A001092C1008BE00E947B00AD
:1003F0008DE00E947B008AE00E947B0060E08DE03F
:100400000E949A0061E08AE00E949A000E94E60041
:100410004B015C0184E6C82ED12CE12CF12C0E940A
:10042000E600681979098A099B09683E73408105CD
:100430009105A8F321E0C21AD108E108F10888EE7D
:10044000880E83E0981EA11CB11CC114D104E104E4
:10045000F10429F760E08FE00E94240161E08CE064
:100460000E9424016FE089E00E94240163E08BE098
:100470000E94240168E08AE00E9424010E94380161
:100480002FB7F89480910D0190910E01A0910F016A
:10049000B09110012FBF8093080190930901A093A0
:1004A0000A01B0930B0111E0C0E0D0E08FB7F894DF
:1004B00040910D0150910E0160910F01709110015A
:1004C0008FBF8091080190910901A0910A01B0911C
:1004D0000B01481B590B6A0B7B0B483E53406105CF
:1004E0007105F8F088519C4FAF4FBF4F80930801C2
:1004F00090930901A0930A01B0930B01809106012A
:100500009091070101968C33910584F49093070133
:1005100080930601809100018127809300010E9451
:100520003801209719F20E940000C0CF10920701F5
:1005300010920601809104019091050101968C337F
:1005400091052CF49093050180930401E3CF109260
:100550000501109204018091010190910201019620
:10056000883191052CF49093020180930101D2CF40
:100570001092020110920101CDCF97FB072E16F4C5
:10058000009407D077FD09D00E94D10207FC05D066
:100590003EF4909581959F4F0895709561957F4F9A
:1005A0000895AA1BBB1B51E107C0AA1FBB1FA617BA
:1005B000B70710F0A61BB70B881F991F5A95A9F70C
:0E05C00080959095BC01CD010895F894FFCF71
:0405CE00010C00001C
:00000001FF
